:100000000C9456000C9468000C9468000C946800E2
:100010000C9468000C9468000C9468000C946800C0
:100020000C9468000C9468000C9468000C946800B0
:100030000C9468000C9468000C9468000C946800A0
:100040000C9468000C9468000C9468000C94680090
:100050000C9468000C94F2000C94E7000C94680077
:100060000C9468000C9468000C9468000C94680070
:100070000C9468000C9468000C9468000C94680060
:100080000C9468000C9468000C9468000C94680050
:100090000C9468000C9468000C9468000C94680040
:1000A0000C9468000C9468000C94680011241FBE26
:1000B000CFEFDAE0DEBFCDBF21E0A0E0B1E001C0CC
:1000C0001D92A130B207E1F70E946A000C944B0127
:1000D0000C94000014B80E9419010E94CE0014C0B4
:1000E0000E9429010E9434018FE99FE00197F1F7F6
:1000F00000C000000E9430010E942C018FE99FE0A7
:100100000197F1F700C000000E94CB00837041F31B
:100110008130B9F0823051F10E9437010E942601EE
:100120008FE99FE00197F1F700C000000E943001C5
:100130000E942C018FEC97E00197F1F700C00000BE
:10014000E3CF0E9437010E9434018FE99FE00197BD
:10015000F1F700C000000E9430010E942C018FE9DD
:100160009FE00197F1F700C00000CECF0E94290167
:100170000E9434018FE99FE00197F1F700C0000071
:100180000E9430010E942C018FEC97E00197F1F75B
:1001900000C00000B9CF80910001089510920001C5
:1001A00010BA11BA81E088BD88E187BD84B582604C
:1001B00084BDEEE6F0E080818660808385B5856051
:1001C00085BD789408958FEF81BB80BB08951F9201
:1001D0000F920FB60F92112410BA0F900FBE0F900E
:1001E0001F9018951F920F920FB60F9211242F9304
:1001F0003F934F935F936F937F938F939F93AF93AF
:10020000BF93EF93FF938FB1809300010E94E300AF
:10021000FF91EF91BF91AF919F918F917F916F91DE
:100220005F914F913F912F910F900FBE0F901F90B4
:1002300018958AB18C608AB98AB1806C8AB984B108
:100240008F7C84B98AB18D7E8AB908955A9A5B9859
:1002500008955F9A5E9808958BB18C608BB908956C
:100260008BB1806C8BB908955B9A5A9808955F980A
:100270005E9A08958BB1837F8BB908958BB18F738C
:100280008BB9089583B1089589B108950E942C0116
:0A0290000E9430010895F894FFCF9A
:00000001FF
